{
  "contractName": "SimpleCollectible",
  "abi": [
    {
      "inputs": [],
      "stateMutability": "nonpayable",
      "type": "constructor"
    },
    {
      "anonymous": false,
      "inputs": [
        {
          "indexed": true,
          "internalType": "address",
          "name": "owner",
          "type": "address"
        },
        {
          "indexed": true,
          "internalType": "address",
          "name": "approved",
          "type": "address"
        },
        {
          "indexed": true,
          "internalType": "uint256",
          "name": "tokenId",
          "type": "uint256"
        }
      ],
      "name": "Approval",
      "type": "event"
    },
    {
      "anonymous": false,
      "inputs": [
        {
          "indexed": true,
          "internalType": "address",
          "name": "owner",
          "type": "address"
        },
        {
          "indexed": true,
          "internalType": "address",
          "name": "operator",
          "type": "address"
        },
        {
          "indexed": false,
          "internalType": "bool",
          "name": "approved",
          "type": "bool"
        }
      ],
      "name": "ApprovalForAll",
      "type": "event"
    },
    {
      "anonymous": false,
      "inputs": [
        {
          "indexed": true,
          "internalType": "address",
          "name": "previousOwner",
          "type": "address"
        },
        {
          "indexed": true,
          "internalType": "address",
          "name": "newOwner",
          "type": "address"
        }
      ],
      "name": "OwnershipTransferred",
      "type": "event"
    },
    {
      "anonymous": false,
      "inputs": [
        {
          "indexed": true,
          "internalType": "address",
          "name": "from",
          "type": "address"
        },
        {
          "indexed": true,
          "internalType": "address",
          "name": "to",
          "type": "address"
        },
        {
          "indexed": true,
          "internalType": "uint256",
          "name": "tokenId",
          "type": "uint256"
        }
      ],
      "name": "Transfer",
      "type": "event"
    },
    {
      "inputs": [
        {
          "internalType": "address",
          "name": "to",
          "type": "address"
        },
        {
          "internalType": "uint256",
          "name": "tokenId",
          "type": "uint256"
        }
      ],
      "name": "approve",
      "outputs": [],
      "stateMutability": "nonpayable",
      "type": "function"
    },
    {
      "inputs": [
        {
          "internalType": "address",
          "name": "owner",
          "type": "address"
        }
      ],
      "name": "balanceOf",
      "outputs": [
        {
          "internalType": "uint256",
          "name": "",
          "type": "uint256"
        }
      ],
      "stateMutability": "view",
      "type": "function",
      "constant": true
    },
    {
      "inputs": [],
      "name": "currentTokenId",
      "outputs": [
        {
          "internalType": "uint256",
          "name": "",
          "type": "uint256"
        }
      ],
      "stateMutability": "view",
      "type": "function",
      "constant": true
    },
    {
      "inputs": [
        {
          "internalType": "uint256",
          "name": "tokenId",
          "type": "uint256"
        }
      ],
      "name": "getApproved",
      "outputs": [
        {
          "internalType": "address",
          "name": "",
          "type": "address"
        }
      ],
      "stateMutability": "view",
      "type": "function",
      "constant": true
    },
    {
      "inputs": [
        {
          "internalType": "address",
          "name": "owner",
          "type": "address"
        },
        {
          "internalType": "address",
          "name": "operator",
          "type": "address"
        }
      ],
      "name": "isApprovedForAll",
      "outputs": [
        {
          "internalType": "bool",
          "name": "",
          "type": "bool"
        }
      ],
      "stateMutability": "view",
      "type": "function",
      "constant": true
    },
    {
      "inputs": [],
      "name": "name",
      "outputs": [
        {
          "internalType": "string",
          "name": "",
          "type": "string"
        }
      ],
      "stateMutability": "view",
      "type": "function",
      "constant": true
    },
    {
      "inputs": [],
      "name": "name1",
      "outputs": [
        {
          "internalType": "string",
          "name": "",
          "type": "string"
        }
      ],
      "stateMutability": "view",
      "type": "function",
      "constant": true
    },
    {
      "inputs": [],
      "name": "owner",
      "outputs": [
        {
          "internalType": "address",
          "name": "",
          "type": "address"
        }
      ],
      "stateMutability": "view",
      "type": "function",
      "constant": true
    },
    {
      "inputs": [
        {
          "internalType": "uint256",
          "name": "tokenId",
          "type": "uint256"
        }
      ],
      "name": "ownerOf",
      "outputs": [
        {
          "internalType": "address",
          "name": "",
          "type": "address"
        }
      ],
      "stateMutability": "view",
      "type": "function",
      "constant": true
    },
    {
      "inputs": [],
      "name": "renounceOwnership",
      "outputs": [],
      "stateMutability": "nonpayable",
      "type": "function"
    },
    {
      "inputs": [
        {
          "internalType": "address",
          "name": "from",
          "type": "address"
        },
        {
          "internalType": "address",
          "name": "to",
          "type": "address"
        },
        {
          "internalType": "uint256",
          "name": "tokenId",
          "type": "uint256"
        }
      ],
      "name": "safeTransferFrom",
      "outputs": [],
      "stateMutability": "nonpayable",
      "type": "function"
    },
    {
      "inputs": [
        {
          "internalType": "address",
          "name": "from",
          "type": "address"
        },
        {
          "internalType": "address",
          "name": "to",
          "type": "address"
        },
        {
          "internalType": "uint256",
          "name": "tokenId",
          "type": "uint256"
        },
        {
          "internalType": "bytes",
          "name": "_data",
          "type": "bytes"
        }
      ],
      "name": "safeTransferFrom",
      "outputs": [],
      "stateMutability": "nonpayable",
      "type": "function"
    },
    {
      "inputs": [
        {
          "internalType": "address",
          "name": "operator",
          "type": "address"
        },
        {
          "internalType": "bool",
          "name": "approved",
          "type": "bool"
        }
      ],
      "name": "setApprovalForAll",
      "outputs": [],
      "stateMutability": "nonpayable",
      "type": "function"
    },
    {
      "inputs": [
        {
          "internalType": "bytes4",
          "name": "interfaceId",
          "type": "bytes4"
        }
      ],
      "name": "supportsInterface",
      "outputs": [
        {
          "internalType": "bool",
          "name": "",
          "type": "bool"
        }
      ],
      "stateMutability": "view",
      "type": "function",
      "constant": true
    },
    {
      "inputs": [],
      "name": "symbol",
      "outputs": [
        {
          "internalType": "string",
          "name": "",
          "type": "string"
        }
      ],
      "stateMutability": "view",
      "type": "function",
      "constant": true
    },
    {
      "inputs": [
        {
          "internalType": "address",
          "name": "from",
          "type": "address"
        },
        {
          "internalType": "address",
          "name": "to",
          "type": "address"
        },
        {
          "internalType": "uint256",
          "name": "tokenId",
          "type": "uint256"
        }
      ],
      "name": "transferFrom",
      "outputs": [],
      "stateMutability": "nonpayable",
      "type": "function"
    },
    {
      "inputs": [
        {
          "internalType": "address",
          "name": "newOwner",
          "type": "address"
        }
      ],
      "name": "transferOwnership",
      "outputs": [],
      "stateMutability": "nonpayable",
      "type": "function"
    },
    {
      "inputs": [
        {
          "internalType": "string",
          "name": "uri",
          "type": "string"
        }
      ],
      "name": "setTokenURINoId",
      "outputs": [],
      "stateMutability": "nonpayable",
      "type": "function"
    },
    {
      "inputs": [
        {
          "internalType": "uint256",
          "name": "tokenId",
          "type": "uint256"
        },
        {
          "internalType": "string",
          "name": "uri",
          "type": "string"
        }
      ],
      "name": "setTokenURI",
      "outputs": [],
      "stateMutability": "nonpayable",
      "type": "function"
    },
    {
      "inputs": [
        {
          "internalType": "uint256",
          "name": "tokenId",
          "type": "uint256"
        },
        {
          "internalType": "string",
          "name": "uri",
          "type": "string"
        }
      ],
      "name": "setTokenURIById",
      "outputs": [],
      "stateMutability": "nonpayable",
      "type": "function"
    },
    {
      "inputs": [
        {
          "internalType": "uint256",
          "name": "tokenId",
          "type": "uint256"
        }
      ],
      "name": "tokenURI",
      "outputs": [
        {
          "internalType": "string",
          "name": "",
          "type": "string"
        }
      ],
      "stateMutability": "view",
      "type": "function",
      "constant": true
    },
    {
      "inputs": [],
      "name": "getTokenId",
      "outputs": [
        {
          "internalType": "uint256",
          "name": "",
          "type": "uint256"
        }
      ],
      "stateMutability": "view",
      "type": "function",
      "constant": true
    }
  ],
  "bytecode": "0x60806040526001600855604051806020016040528060008152506009908051906020019062000030929190620001d3565b503480156200003e57600080fd5b506040518060400160405280600881526020017f4b6576696e4e46540000000000000000000000000000000000000000000000008152506040518060400160405280600581526020017f4b4556494e0000000000000000000000000000000000000000000000000000008152508160009080519060200190620000c3929190620001d3565b508060019080519060200190620000dc929190620001d3565b505050620000ff620000f36200010560201b60201c565b6200010d60201b60201c565b620002e8565b600033905090565b6000600760009054906101000a900473ffffffffffffffffffffffffffffffffffffffff16905081600760006101000a81548173ffffffffffffffffffffffffffffffffffffffff021916908373ffffffffffffffffffffffffffffffffffffffff1602179055508173ffffffffffffffffffffffffffffffffffffffff168173ffffffffffffffffffffffffffffffffffffffff167f8be0079c531659141344cd1fd0a4f28419497f9722a3daafe3b4186f6b6457e060405160405180910390a35050565b828054620001e190620002b2565b90600052602060002090601f01602090048101928262000205576000855562000251565b82601f106200022057805160ff191683800117855562000251565b8280016001018555821562000251579182015b828111156200025057825182559160200191906001019062000233565b5b50905062000260919062000264565b5090565b5b808211156200027f57600081600090555060010162000265565b5090565b7f4e487b7100000000000000000000000000000000000000000000000000000000600052602260045260246000fd5b60006002820490506001821680620002cb57607f821691505b60208210811415620002e257620002e162000283565b5b50919050565b61331580620002f86000396000f3fe608060405234801561001057600080fd5b50600436106101415760003560e01c80636352211e116100b8578063a22cb4651161007c578063a22cb46514610350578063a5fbb0191461036c578063b88d4fde14610388578063c87b56dd146103a4578063e985e9c5146103d4578063f2fde38b1461040457610141565b80636352211e146102aa57806370a08231146102da578063715018a61461030a5780638da5cb5b1461031457806395d89b411461033257610141565b8063095ea7b31161010a578063095ea7b314610200578063162094c41461021c57806323b872dd146102385780633e7be0831461025457806342842e0e1461027057806347c8efa71461028c57610141565b80629a9b7b14610146578063010a38f51461016457806301ffc9a71461018257806306fdde03146101b2578063081812fc146101d0575b600080fd5b61014e610420565b60405161015b9190611edd565b60405180910390f35b61016c610426565b6040516101799190611edd565b60405180910390f35b61019c60048036038101906101979190611f64565b610430565b6040516101a99190611fac565b60405180910390f35b6101ba610512565b6040516101c79190612060565b60405180910390f35b6101ea60048036038101906101e591906120ae565b6105a4565b6040516101f7919061211c565b60405180910390f35b61021a60048036038101906102159190612163565b610629565b005b610236600480360381019061023191906122d8565b610741565b005b610252600480360381019061024d9190612334565b6107dc565b005b61026e600480360381019061026991906122d8565b61083c565b005b61028a60048036038101906102859190612334565b6108d7565b005b6102946108f7565b6040516102a19190612060565b60405180910390f35b6102c460048036038101906102bf91906120ae565b610985565b6040516102d1919061211c565b60405180910390f35b6102f460048036038101906102ef9190612387565b610a37565b6040516103019190611edd565b60405180910390f35b610312610aef565b005b61031c610b77565b604051610329919061211c565b60405180910390f35b61033a610ba1565b6040516103479190612060565b60405180910390f35b61036a600480360381019061036591906123e0565b610c33565b005b61038660048036038101906103819190612420565b610c49565b005b6103a2600480360381019061039d919061250a565b610cf5565b005b6103be60048036038101906103b991906120ae565b610d57565b6040516103cb9190612060565b60405180910390f35b6103ee60048036038101906103e9919061258d565b610d69565b6040516103fb9190611fac565b60405180910390f35b61041e60048036038101906104199190612387565b610dfd565b005b60085481565b6000600854905090565b60007f80ac58cd000000000000000000000000000000000000000000000000000000007bffffffffffffffffffffffffffffffffffffffffffffffffffffffff1916827bffffffffffffffffffffffffffffffffffffffffffffffffffffffff191614806104fb57507f5b5e139f000000000000000000000000000000000000000000000000000000007bffffffffffffffffffffffffffffffffffffffffffffffffffffffff1916827bffffffffffffffffffffffffffffffffffffffffffffffffffffffff1916145b8061050b575061050a82610ef5565b5b9050919050565b606060008054610521906125fc565b80601f016020809104026020016040519081016040528092919081815260200182805461054d906125fc565b801561059a5780601f1061056f5761010080835404028352916020019161059a565b820191906000526020600020905b81548152906001019060200180831161057d57829003601f168201915b5050505050905090565b60006105af82610f5f565b6105ee576040517f08c379a00000000000000000000000000000000000000000000000000000000081526004016105e5906126a0565b60405180910390fd5b6004600083815260200190815260200160002060009054906101000a900473ffffffffffffffffffffffffffffffffffffffff169050919050565b600061063482610985565b90508073ffffffffffffffffffffffffffffffffffffffff168373ffffffffffffffffffffffffffffffffffffffff1614156106a5576040517f08c379a000000000000000000000000000000000000000000000000000000000815260040161069c90612732565b60405180910390fd5b8073ffffffffffffffffffffffffffffffffffffffff166106c4610fcb565b73ffffffffffffffffffffffffffffffffffffffff1614806106f357506106f2816106ed610fcb565b610d69565b5b610732576040517f08c379a0000000000000000000000000000000000000000000000000000000008152600401610729906127c4565b60405180910390fd5b61073c8383610fd3565b505050565b610749610fcb565b73ffffffffffffffffffffffffffffffffffffffff16610767610b77565b73ffffffffffffffffffffffffffffffffffffffff16146107bd576040517f08c379a00000000000000000000000000000000000000000000000000000000081526004016107b490612830565b60405180910390fd5b6107c7338361108c565b6107d182826110aa565b816008819055505050565b6107ed6107e7610fcb565b8261111e565b61082c576040517f08c379a0000000000000000000000000000000000000000000000000000000008152600401610823906128c2565b60405180910390fd5b6108378383836111fc565b505050565b610844610fcb565b73ffffffffffffffffffffffffffffffffffffffff16610862610b77565b73ffffffffffffffffffffffffffffffffffffffff16146108b8576040517f08c379a00000000000000000000000000000000000000000000000000000000081526004016108af90612830565b60405180910390fd5b6108c2338361108c565b6108cc82826110aa565b816008819055505050565b6108f283838360405180602001604052806000815250610cf5565b505050565b60098054610904906125fc565b80601f0160208091040260200160405190810160405280929190818152602001828054610930906125fc565b801561097d5780601f106109525761010080835404028352916020019161097d565b820191906000526020600020905b81548152906001019060200180831161096057829003601f168201915b505050505081565b6000806002600084815260200190815260200160002060009054906101000a900473ffffffffffffffffffffffffffffffffffffffff169050600073ffffffffffffffffffffffffffffffffffffffff168173ffffffffffffffffffffffffffffffffffffffff161415610a2e576040517f08c379a0000000000000000000000000000000000000000000000000000000008152600401610a2590612954565b60405180910390fd5b80915050919050565b60008073ffffffffffffffffffffffffffffffffffffffff168273ffffffffffffffffffffffffffffffffffffffff161415610aa8576040517f08c379a0000000000000000000000000000000000000000000000000000000008152600401610a9f906129e6565b60405180910390fd5b600360008373ffffffffffffffffffffffffffffffffffffffff1673ffffffffffffffffffffffffffffffffffffffff168152602001908152602001600020549050919050565b610af7610fcb565b73ffffffffffffffffffffffffffffffffffffffff16610b15610b77565b73ffffffffffffffffffffffffffffffffffffffff1614610b6b576040517f08c379a0000000000000000000000000000000000000000000000000000000008152600401610b6290612830565b60405180910390fd5b610b756000611458565b565b6000600760009054906101000a900473ffffffffffffffffffffffffffffffffffffffff16905090565b606060018054610bb0906125fc565b80601f0160208091040260200160405190810160405280929190818152602001828054610bdc906125fc565b8015610c295780601f10610bfe57610100808354040283529160200191610c29565b820191906000526020600020905b815481529060010190602001808311610c0c57829003601f168201915b5050505050905090565b610c45610c3e610fcb565b838361151e565b5050565b610c51610fcb565b73ffffffffffffffffffffffffffffffffffffffff16610c6f610b77565b73ffffffffffffffffffffffffffffffffffffffff1614610cc5576040517f08c379a0000000000000000000000000000000000000000000000000000000008152600401610cbc90612830565b60405180910390fd5b610cd13360085461108c565b610cdd600854826110aa565b6001600854610cec9190612a35565b60088190555050565b610d06610d00610fcb565b8361111e565b610d45576040517f08c379a0000000000000000000000000000000000000000000000000000000008152600401610d3c906128c2565b60405180910390fd5b610d518484848461168b565b50505050565b6060610d62826116e7565b9050919050565b6000600560008473ffffffffffffffffffffffffffffffffffffffff1673ffffffffffffffffffffffffffffffffffffffff16815260200190815260200160002060008373ffffffffffffffffffffffffffffffffffffffff1673ffffffffffffffffffffffffffffffffffffffff16815260200190815260200160002060009054906101000a900460ff16905092915050565b610e05610fcb565b73ffffffffffffffffffffffffffffffffffffffff16610e23610b77565b73ffffffffffffffffffffffffffffffffffffffff1614610e79576040517f08c379a0000000000000000000000000000000000000000000000000000000008152600401610e7090612830565b60405180910390fd5b600073ffffffffffffffffffffffffffffffffffffffff168173ffffffffffffffffffffffffffffffffffffffff161415610ee9576040517f08c379a0000000000000000000000000000000000000000000000000000000008152600401610ee090612afd565b60405180910390fd5b610ef281611458565b50565b60007f01ffc9a7000000000000000000000000000000000000000000000000000000007bffffffffffffffffffffffffffffffffffffffffffffffffffffffff1916827bffffffffffffffffffffffffffffffffffffffffffffffffffffffff1916149050919050565b60008073ffffffffffffffffffffffffffffffffffffffff166002600084815260200190815260200160002060009054906101000a900473ffffffffffffffffffffffffffffffffffffffff1673ffffffffffffffffffffffffffffffffffffffff1614159050919050565b600033905090565b816004600083815260200190815260200160002060006101000a81548173ffffffffffffffffffffffffffffffffffffffff021916908373ffffffffffffffffffffffffffffffffffffffff160217905550808273ffffffffffffffffffffffffffffffffffffffff1661104683610985565b73ffffffffffffffffffffffffffffffffffffffff167f8c5be1e5ebec7d5bd14f71427d1e84f3dd0314c0f7b2291e5b200ac8c7c3b92560405160405180910390a45050565b6110a6828260405180602001604052806000815250611839565b5050565b6110b382610f5f565b6110f2576040517f08c379a00000000000000000000000000000000000000000000000000000000081526004016110e990612b8f565b60405180910390fd5b80600660008481526020019081526020016000209080519060200190611119929190611e21565b505050565b600061112982610f5f565b611168576040517f08c379a000000000000000000000000000000000000000000000000000000000815260040161115f90612c21565b60405180910390fd5b600061117383610985565b90508073ffffffffffffffffffffffffffffffffffffffff168473ffffffffffffffffffffffffffffffffffffffff1614806111e257508373ffffffffffffffffffffffffffffffffffffffff166111ca846105a4565b73ffffffffffffffffffffffffffffffffffffffff16145b806111f357506111f28185610d69565b5b91505092915050565b8273ffffffffffffffffffffffffffffffffffffffff1661121c82610985565b73ffffffffffffffffffffffffffffffffffffffff1614611272576040517f08c379a000000000000000000000000000000000000000000000000000000000815260040161126990612cb3565b60405180910390fd5b600073ffffffffffffffffffffffffffffffffffffffff168273ffffffffffffffffffffffffffffffffffffffff1614156112e2576040517f08c379a00000000000000000000000000000000000000000000000000000000081526004016112d990612d45565b60405180910390fd5b6112ed838383611894565b6112f8600082610fd3565b6001600360008573ffffffffffffffffffffffffffffffffffffffff1673ffffffffffffffffffffffffffffffffffffffff16815260200190815260200160002060008282546113489190612d65565b925050819055506001600360008473ffffffffffffffffffffffffffffffffffffffff1673ffffffffffffffffffffffffffffffffffffffff168152602001908152602001600020600082825461139f9190612a35565b92505081905550816002600083815260200190815260200160002060006101000a81548173ffffffffffffffffffffffffffffffffffffffff021916908373ffffffffffffffffffffffffffffffffffffffff160217905550808273ffffffffffffffffffffffffffffffffffffffff168473ffffffffffffffffffffffffffffffffffffffff167fddf252ad1be2c89b69c2b068fc378daa952ba7f163c4a11628f55a4df523b3ef60405160405180910390a4505050565b6000600760009054906101000a900473ffffffffffffffffffffffffffffffffffffffff16905081600760006101000a81548173ffffffffffffffffffffffffffffffffffffffff021916908373ffffffffffffffffffffffffffffffffffffffff1602179055508173ffffffffffffffffffffffffffffffffffffffff168173ffffffffffffffffffffffffffffffffffffffff167f8be0079c531659141344cd1fd0a4f28419497f9722a3daafe3b4186f6b6457e060405160405180910390a35050565b8173ffffffffffffffffffffffffffffffffffffffff168373ffffffffffffffffffffffffffffffffffffffff16141561158d576040517f08c379a000000000000000000000000000000000000000000000000000000000815260040161158490612de5565b60405180910390fd5b80600560008573ffffffffffffffffffffffffffffffffffffffff1673ffffffffffffffffffffffffffffffffffffffff16815260200190815260200160002060008473ffffffffffffffffffffffffffffffffffffffff1673ffffffffffffffffffffffffffffffffffffffff16815260200190815260200160002060006101000a81548160ff0219169083151502179055508173ffffffffffffffffffffffffffffffffffffffff168373ffffffffffffffffffffffffffffffffffffffff167f17307eab39ab6107e8899845ad3d59bd9653f200f220920489ca2b5937696c318360405161167e9190611fac565b60405180910390a3505050565b6116968484846111fc565b6116a284848484611899565b6116e1576040517f08c379a00000000000000000000000000000000000000000000000000000000081526004016116d890612e77565b60405180910390fd5b50505050565b60606116f282610f5f565b611731576040517f08c379a000000000000000000000000000000000000000000000000000000000815260040161172890612f09565b60405180910390fd5b6000600660008481526020019081526020016000208054611751906125fc565b80601f016020809104026020016040519081016040528092919081815260200182805461177d906125fc565b80156117ca5780601f1061179f576101008083540402835291602001916117ca565b820191906000526020600020905b8154815290600101906020018083116117ad57829003601f168201915b5050505050905060006117db611a21565b90506000815114156117f1578192505050611834565b60008251111561182657808260405160200161180e929190612f65565b60405160208183030381529060405292505050611834565b61182f84611a38565b925050505b919050565b6118438383611adf565b6118506000848484611899565b61188f576040517f08c379a000000000000000000000000000000000000000000000000000000000815260040161188690612e77565b60405180910390fd5b505050565b505050565b60006118ba8473ffffffffffffffffffffffffffffffffffffffff16611cad565b15611a14578373ffffffffffffffffffffffffffffffffffffffff1663150b7a026118e3610fcb565b8786866040518563ffffffff1660e01b81526004016119059493929190612fde565b6020604051808303816000875af192505050801561194157506040513d601f19601f8201168201806040525081019061193e919061303f565b60015b6119c4573d8060008114611971576040519150601f19603f3d011682016040523d82523d6000602084013e611976565b606091505b506000815114156119bc576040517f08c379a00000000000000000000000000000000000000000000000000000000081526004016119b390612e77565b60405180910390fd5b805181602001fd5b63150b7a0260e01b7bffffffffffffffffffffffffffffffffffffffffffffffffffffffff1916817bffffffffffffffffffffffffffffffffffffffffffffffffffffffff191614915050611a19565b600190505b949350505050565b606060405180602001604052806000815250905090565b6060611a4382610f5f565b611a82576040517f08c379a0000000000000000000000000000000000000000000000000000000008152600401611a79906130de565b60405180910390fd5b6000611a8c611a21565b90506000815111611aac5760405180602001604052806000815250611ad7565b80611ab684611cc0565b604051602001611ac7929190612f65565b6040516020818303038152906040525b915050919050565b600073ffffffffffffffffffffffffffffffffffffffff168273ffffffffffffffffffffffffffffffffffffffff161415611b4f576040517f08c379a0000000000000000000000000000000000000000000000000000000008152600401611b469061314a565b60405180910390fd5b611b5881610f5f565b15611b98576040517f08c379a0000000000000000000000000000000000000000000000000000000008152600401611b8f906131b6565b60405180910390fd5b611ba460008383611894565b6001600360008473ffffffffffffffffffffffffffffffffffffffff1673ffffffffffffffffffffffffffffffffffffffff1681526020019081526020016000206000828254611bf49190612a35565b92505081905550816002600083815260200190815260200160002060006101000a81548173ffffffffffffffffffffffffffffffffffffffff021916908373ffffffffffffffffffffffffffffffffffffffff160217905550808273ffffffffffffffffffffffffffffffffffffffff16600073ffffffffffffffffffffffffffffffffffffffff167fddf252ad1be2c89b69c2b068fc378daa952ba7f163c4a11628f55a4df523b3ef60405160405180910390a45050565b600080823b905060008111915050919050565b60606000821415611d08576040518060400160405280600181526020017f30000000000000000000000000000000000000000000000000000000000000008152509050611e1c565b600082905060005b60008214611d3a578080611d23906131d6565b915050600a82611d33919061324e565b9150611d10565b60008167ffffffffffffffff811115611d5657611d556121ad565b5b6040519080825280601f01601f191660200182016040528015611d885781602001600182028036833780820191505090505b5090505b60008514611e1557600182611da19190612d65565b9150600a85611db0919061327f565b6030611dbc9190612a35565b60f81b818381518110611dd257611dd16132b0565b5b60200101907effffffffffffffffffffffffffffffffffffffffffffffffffffffffffffff1916908160001a905350600a85611e0e919061324e565b9450611d8c565b8093505050505b919050565b828054611e2d906125fc565b90600052602060002090601f016020900481019282611e4f5760008555611e96565b82601f10611e6857805160ff1916838001178555611e96565b82800160010185558215611e96579182015b82811115611e95578251825591602001919060010190611e7a565b5b509050611ea39190611ea7565b5090565b5b80821115611ec0576000816000905550600101611ea8565b5090565b6000819050919050565b611ed781611ec4565b82525050565b6000602082019050611ef26000830184611ece565b92915050565b6000604051905090565b600080fd5b600080fd5b60007fffffffff0000000000000000000000000000000000000000000000000000000082169050919050565b611f4181611f0c565b8114611f4c57600080fd5b50565b600081359050611f5e81611f38565b92915050565b600060208284031215611f7a57611f79611f02565b5b6000611f8884828501611f4f565b91505092915050565b60008115159050919050565b611fa681611f91565b82525050565b6000602082019050611fc16000830184611f9d565b92915050565b600081519050919050565b600082825260208201905092915050565b60005b83811015612001578082015181840152602081019050611fe6565b83811115612010576000848401525b50505050565b6000601f19601f8301169050919050565b600061203282611fc7565b61203c8185611fd2565b935061204c818560208601611fe3565b61205581612016565b840191505092915050565b6000602082019050818103600083015261207a8184612027565b905092915050565b61208b81611ec4565b811461209657600080fd5b50565b6000813590506120a881612082565b92915050565b6000602082840312156120c4576120c3611f02565b5b60006120d284828501612099565b91505092915050565b600073ffffffffffffffffffffffffffffffffffffffff82169050919050565b6000612106826120db565b9050919050565b612116816120fb565b82525050565b6000602082019050612131600083018461210d565b92915050565b612140816120fb565b811461214b57600080fd5b50565b60008135905061215d81612137565b92915050565b6000806040838503121561217a57612179611f02565b5b60006121888582860161214e565b925050602061219985828601612099565b9150509250929050565b600080fd5b600080fd5b7f4e487b7100000000000000000000000000000000000000000000000000000000600052604160045260246000fd5b6121e582612016565b810181811067ffffffffffffffff82111715612204576122036121ad565b5b80604052505050565b6000612217611ef8565b905061222382826121dc565b919050565b600067ffffffffffffffff821115612243576122426121ad565b5b61224c82612016565b9050602081019050919050565b82818337600083830152505050565b600061227b61227684612228565b61220d565b905082815260208101848484011115612297576122966121a8565b5b6122a2848285612259565b509392505050565b600082601f8301126122bf576122be6121a3565b5b81356122cf848260208601612268565b91505092915050565b600080604083850312156122ef576122ee611f02565b5b60006122fd85828601612099565b925050602083013567ffffffffffffffff81111561231e5761231d611f07565b5b61232a858286016122aa565b9150509250929050565b60008060006060848603121561234d5761234c611f02565b5b600061235b8682870161214e565b935050602061236c8682870161214e565b925050604061237d86828701612099565b9150509250925092565b60006020828403121561239d5761239c611f02565b5b60006123ab8482850161214e565b91505092915050565b6123bd81611f91565b81146123c857600080fd5b50565b6000813590506123da816123b4565b92915050565b600080604083850312156123f7576123f6611f02565b5b60006124058582860161214e565b9250506020612416858286016123cb565b9150509250929050565b60006020828403121561243657612435611f02565b5b600082013567ffffffffffffffff81111561245457612453611f07565b5b612460848285016122aa565b91505092915050565b600067ffffffffffffffff821115612484576124836121ad565b5b61248d82612016565b9050602081019050919050565b60006124ad6124a884612469565b61220d565b9050828152602081018484840111156124c9576124c86121a8565b5b6124d4848285612259565b509392505050565b600082601f8301126124f1576124f06121a3565b5b813561250184826020860161249a565b91505092915050565b6000806000806080858703121561252457612523611f02565b5b60006125328782880161214e565b94505060206125438782880161214e565b935050604061255487828801612099565b925050606085013567ffffffffffffffff81111561257557612574611f07565b5b612581878288016124dc565b91505092959194509250565b600080604083850312156125a4576125a3611f02565b5b60006125b28582860161214e565b92505060206125c38582860161214e565b9150509250929050565b7f4e487b7100000000000000000000000000000000000000000000000000000000600052602260045260246000fd5b6000600282049050600182168061261457607f821691505b60208210811415612628576126276125cd565b5b50919050565b7f4552433732313a20617070726f76656420717565727920666f72206e6f6e657860008201527f697374656e7420746f6b656e0000000000000000000000000000000000000000602082015250565b600061268a602c83611fd2565b91506126958261262e565b604082019050919050565b600060208201905081810360008301526126b98161267d565b9050919050565b7f4552433732313a20617070726f76616c20746f2063757272656e74206f776e6560008201527f7200000000000000000000000000000000000000000000000000000000000000602082015250565b600061271c602183611fd2565b9150612727826126c0565b604082019050919050565b6000602082019050818103600083015261274b8161270f565b9050919050565b7f4552433732313a20617070726f76652063616c6c6572206973206e6f74206f7760008201527f6e6572206e6f7220617070726f76656420666f7220616c6c0000000000000000602082015250565b60006127ae603883611fd2565b91506127b982612752565b604082019050919050565b600060208201905081810360008301526127dd816127a1565b9050919050565b7f4f776e61626c653a2063616c6c6572206973206e6f7420746865206f776e6572600082015250565b600061281a602083611fd2565b9150612825826127e4565b602082019050919050565b600060208201905081810360008301526128498161280d565b9050919050565b7f4552433732313a207472616e736665722063616c6c6572206973206e6f74206f60008201527f776e6572206e6f7220617070726f766564000000000000000000000000000000602082015250565b60006128ac603183611fd2565b91506128b782612850565b604082019050919050565b600060208201905081810360008301526128db8161289f565b9050919050565b7f4552433732313a206f776e657220717565727920666f72206e6f6e657869737460008201527f656e7420746f6b656e0000000000000000000000000000000000000000000000602082015250565b600061293e602983611fd2565b9150612949826128e2565b604082019050919050565b6000602082019050818103600083015261296d81612931565b9050919050565b7f4552433732313a2062616c616e636520717565727920666f7220746865207a6560008201527f726f206164647265737300000000000000000000000000000000000000000000602082015250565b60006129d0602a83611fd2565b91506129db82612974565b604082019050919050565b600060208201905081810360008301526129ff816129c3565b9050919050565b7f4e487b7100000000000000000000000000000000000000000000000000000000600052601160045260246000fd5b6000612a4082611ec4565b9150612a4b83611ec4565b9250827fffffffffffffffffffffffffffffffffffffffffffffffffffffffffffffffff03821115612a8057612a7f612a06565b5b828201905092915050565b7f4f776e61626c653a206e6577206f776e657220697320746865207a65726f206160008201527f6464726573730000000000000000000000000000000000000000000000000000602082015250565b6000612ae7602683611fd2565b9150612af282612a8b565b604082019050919050565b60006020820190508181036000830152612b1681612ada565b9050919050565b7f45524337323155524953746f726167653a2055524920736574206f66206e6f6e60008201527f6578697374656e7420746f6b656e000000000000000000000000000000000000602082015250565b6000612b79602e83611fd2565b9150612b8482612b1d565b604082019050919050565b60006020820190508181036000830152612ba881612b6c565b9050919050565b7f4552433732313a206f70657261746f7220717565727920666f72206e6f6e657860008201527f697374656e7420746f6b656e0000000000000000000000000000000000000000602082015250565b6000612c0b602c83611fd2565b9150612c1682612baf565b604082019050919050565b60006020820190508181036000830152612c3a81612bfe565b9050919050565b7f4552433732313a207472616e73666572206f6620746f6b656e2074686174206960008201527f73206e6f74206f776e0000000000000000000000000000000000000000000000602082015250565b6000612c9d602983611fd2565b9150612ca882612c41565b604082019050919050565b60006020820190508181036000830152612ccc81612c90565b9050919050565b7f4552433732313a207472616e7366657220746f20746865207a65726f2061646460008201527f7265737300000000000000000000000000000000000000000000000000000000602082015250565b6000612d2f602483611fd2565b9150612d3a82612cd3565b604082019050919050565b60006020820190508181036000830152612d5e81612d22565b9050919050565b6000612d7082611ec4565b9150612d7b83611ec4565b925082821015612d8e57612d8d612a06565b5b828203905092915050565b7f4552433732313a20617070726f766520746f2063616c6c657200000000000000600082015250565b6000612dcf601983611fd2565b9150612dda82612d99565b602082019050919050565b60006020820190508181036000830152612dfe81612dc2565b9050919050565b7f4552433732313a207472616e7366657220746f206e6f6e20455243373231526560008201527f63656976657220696d706c656d656e7465720000000000000000000000000000602082015250565b6000612e61603283611fd2565b9150612e6c82612e05565b604082019050919050565b60006020820190508181036000830152612e9081612e54565b9050919050565b7f45524337323155524953746f726167653a2055524920717565727920666f722060008201527f6e6f6e6578697374656e7420746f6b656e000000000000000000000000000000602082015250565b6000612ef3603183611fd2565b9150612efe82612e97565b604082019050919050565b60006020820190508181036000830152612f2281612ee6565b9050919050565b600081905092915050565b6000612f3f82611fc7565b612f498185612f29565b9350612f59818560208601611fe3565b80840191505092915050565b6000612f718285612f34565b9150612f7d8284612f34565b91508190509392505050565b600081519050919050565b600082825260208201905092915050565b6000612fb082612f89565b612fba8185612f94565b9350612fca818560208601611fe3565b612fd381612016565b840191505092915050565b6000608082019050612ff3600083018761210d565b613000602083018661210d565b61300d6040830185611ece565b818103606083015261301f8184612fa5565b905095945050505050565b60008151905061303981611f38565b92915050565b60006020828403121561305557613054611f02565b5b60006130638482850161302a565b91505092915050565b7f4552433732314d657461646174613a2055524920717565727920666f72206e6f60008201527f6e6578697374656e7420746f6b656e0000000000000000000000000000000000602082015250565b60006130c8602f83611fd2565b91506130d38261306c565b604082019050919050565b600060208201905081810360008301526130f7816130bb565b9050919050565b7f4552433732313a206d696e7420746f20746865207a65726f2061646472657373600082015250565b6000613134602083611fd2565b915061313f826130fe565b602082019050919050565b6000602082019050818103600083015261316381613127565b9050919050565b7f4552433732313a20746f6b656e20616c7265616479206d696e74656400000000600082015250565b60006131a0601c83611fd2565b91506131ab8261316a565b602082019050919050565b600060208201905081810360008301526131cf81613193565b9050919050565b60006131e182611ec4565b91507fffffffffffffffffffffffffffffffffffffffffffffffffffffffffffffffff82141561321457613213612a06565b5b600182019050919050565b7f4e487b7100000000000000000000000000000000000000000000000000000000600052601260045260246000fd5b600061325982611ec4565b915061326483611ec4565b9250826132745761327361321f565b5b828204905092915050565b600061328a82611ec4565b915061329583611ec4565b9250826132a5576132a461321f565b5b828206905092915050565b7f4e487b7100000000000000000000000000000000000000000000000000000000600052603260045260246000fdfea2646970667358221220dbffe398d5a520e1ff3c92a198c3cc715c219fa2081145f0793b55fd565df6e664736f6c634300080a0033",
  "immutableReferences": {},
  "source": "// SPDX-License-Identifier: MIT\npragma solidity 0.8.10;\n\nimport \"@openzeppelin/contracts/token/ERC721/ERC721.sol\";\nimport \"@openzeppelin/contracts/token/ERC721/extensions/ERC721URIStorage.sol\";\nimport \"@openzeppelin/contracts/access/Ownable.sol\";\n\ncontract SimpleCollectible is ERC721, ERC721URIStorage, Ownable {\n    uint256  public currentTokenId=1;\n    string  public name1=\"\";\n\n    constructor() ERC721(\"KevinNFT\", \"KEVIN\") {}\n\n    function setTokenURINoId(string memory uri)\n    public\n    onlyOwner\n    {\n        _safeMint(msg.sender, currentTokenId);\n        _setTokenURI(currentTokenId, uri);\n        currentTokenId = currentTokenId + 1;\n    }\n\n    function setTokenURI(uint256 tokenId, string memory uri)\n    public\n    onlyOwner\n    {\n        _safeMint(msg.sender, tokenId);\n        _setTokenURI(tokenId, uri);\n        currentTokenId = tokenId;\n    }\n\n    function setTokenURIById(uint256 tokenId, string memory uri)\n    public\n    onlyOwner\n    {\n        _safeMint(msg.sender, tokenId);\n        _setTokenURI(tokenId, uri);\n        currentTokenId = tokenId;\n    }\n\n    function tokenURI(uint256 tokenId)\n    public\n    view\n    override(ERC721, ERC721URIStorage)\n    returns (string memory)\n    {\n        return super.tokenURI(tokenId);\n    }\n\n    function getTokenId() public view returns (uint256) {\n        return currentTokenId;\n    }\n\n    // The following functions are overrides required by Solidity.\n    function _burn(uint256 tokenId) internal override(ERC721, ERC721URIStorage) {\n        super._burn(tokenId);\n    }\n}",
  "sourcePath": "/var/www/kevin/deployNFTOpensea_heroku/contracts/SimpleCollectible.sol",
  "compiler": {
    "name": "solc",
    "version": "0.8.10+commit.fc410830.Emscripten.clang"
  },
  "schemaVersion": "3.4.3",
  "updatedAt": "2022-01-17T12:46:50.487Z",
  "networkType": "ethereum",
  "devdoc": {
    "kind": "dev",
    "methods": {
      "approve(address,uint256)": {
        "details": "See {IERC721-approve}."
      },
      "balanceOf(address)": {
        "details": "See {IERC721-balanceOf}."
      },
      "getApproved(uint256)": {
        "details": "See {IERC721-getApproved}."
      },
      "isApprovedForAll(address,address)": {
        "details": "See {IERC721-isApprovedForAll}."
      },
      "name()": {
        "details": "See {IERC721Metadata-name}."
      },
      "owner()": {
        "details": "Returns the address of the current owner."
      },
      "ownerOf(uint256)": {
        "details": "See {IERC721-ownerOf}."
      },
      "renounceOwnership()": {
        "details": "Leaves the contract without owner. It will not be possible to call `onlyOwner` functions anymore. Can only be called by the current owner. NOTE: Renouncing ownership will leave the contract without an owner, thereby removing any functionality that is only available to the owner."
      },
      "safeTransferFrom(address,address,uint256)": {
        "details": "See {IERC721-safeTransferFrom}."
      },
      "safeTransferFrom(address,address,uint256,bytes)": {
        "details": "See {IERC721-safeTransferFrom}."
      },
      "setApprovalForAll(address,bool)": {
        "details": "See {IERC721-setApprovalForAll}."
      },
      "supportsInterface(bytes4)": {
        "details": "See {IERC165-supportsInterface}."
      },
      "symbol()": {
        "details": "See {IERC721Metadata-symbol}."
      },
      "transferFrom(address,address,uint256)": {
        "details": "See {IERC721-transferFrom}."
      },
      "transferOwnership(address)": {
        "details": "Transfers ownership of the contract to a new account (`newOwner`). Can only be called by the current owner."
      }
    },
    "version": 1
  },
  "userdoc": {
    "kind": "user",
    "methods": {},
    "version": 1
  }
}